:020000040800F2
:10000000B007002065010008F11A00086319000814
:1000100000000000000000000000000000000000E0
:10002000000000000000000000000000F51A0008B9
:100030000000000000000000F31A0008F71A000892
:1000400077010008770100087701000877010008B0
:1000500077010008770100087701000877010008A0
:100060007701000877010008770100087701000890
:100070007701000877010008000000007701000800
:1000800000000000770100080000000000000000F0
:1000900077010008000000007701000877010008E0
:1000A0007701000877010008770100087701000850
:1000B0007701000877010008770100087701000840
:1000C00000F002F800F03EF80CA030C80838241800
:1000D0002D18A246671EAB4654465D46AC4201D180
:1000E00000F030F87E460F3E0FCCB6460126334274
:1000F00000D0FB1AA246AB463343184774210000D8
:1001000094210000103A02D378C878C1FAD8520777
:1001100001D330C830C101D504680C6070470000BD
:100120000023002400250026103A01D378C1FBD813
:10013000520700D330C100D50B6070471FB51FBDFB
:1001400010B510BD00F07BF91146FFF7F7FF02F084
:1001500041F800F093F903B4FFF7F2FF03BC00F09D
:1001600099F900000748804707480047FEE7FEE787
:10017000FEE7FEE7FEE7FEE704480549054A064BB1
:1001800070470000911B0008C1000008B00100206A
:10019000B0070020B0030020B0030020FEB50546E4
:1001A00010460C46184373D0AE468C460020AD1A5C
:1001B00001469C4167D36646002701243D46B61A96
:1001C0009D4102D313463A462124654676462F04C4
:1001D000360C3E432D0CB61A9D4104D3150C1B045E
:1001E0002B4312041034654676462F06360A3E43EA
:1001F0002D0AB61A9D4104D3150E1B022B43120281
:100200000834654676462F0736093E432D09B61A4F
:100210009D4104D3150F1B012B431201241D65467C
:100220007646AF07B6083E43AD08B61A9D4104D3E3
:10023000950F9B002B439200A41C65467646EF0762
:1002400076083E436D08B61A9D411AD392185B4159
:10025000641C16E00018764665464941B71A9D4170
:100260000191009009D36046B11A98418E468446A8
:10027000009801990025401C6941DD0752082A4376
:100280005B08641EE6D57246634603B0F0BDFFE727
:1002900000200146C046C0462A462346F5E701E055
:1002A00004C0091F0429FBD28B0701D50280801CE2
:1002B000C90700D00270704700290BD0C30702D0D5
:1002C0000270401C491E022904D3830702D5028014
:1002D000801C891EE3E70022EEE70022DFE7002210
:1002E00003098B422CD3030A8B4211D300239C4673
:1002F0004EE003460B433CD4002243088B4231D3EB
:1003000003098B421CD3030A8B4201D394463FE07E
:10031000C3098B4201D3CB01C01A524183098B42DE
:1003200001D38B01C01A524143098B4201D34B01C7
:10033000C01A524103098B4201D30B01C01A52412A
:10034000C3088B4201D3CB00C01A524183088B42B1
:1003500001D38B00C01A524143088B4201D34B009A
:10036000C01A5241411A00D201465241104670470C
:100370005DE0CA0F00D04942031000D34042534011
:1003800000229C4603098B422DD3030A8B4212D3D1
:10039000FC22890112BA030A8B420CD38901921103
:1003A0008B4208D3890192118B4204D389013AD040
:1003B000921100E08909C3098B4201D3CB01C01A15
:1003C000524183098B4201D38B01C01A5241430928
:1003D0008B4201D34B01C01A524103098B4201D316
:1003E0000B01C01A5241C3088B4201D3CB00C01A83
:1003F000524183088B4201D38B00C01A5241D9D29B
:1004000043088B4201D34B00C01A5241411A00D21B
:100410000146634652415B10104601D34042002B17
:1004200000D54942704763465B1000D3404201B596
:100430000020C046C04602BD7047704770477546F1
:1004400000F024F8AE46050069465346C008C000D7
:10045000854618B020B5FFF78FFE60BC002749081D
:10046000B6460026C0C5C0C5C0C5C0C5C0C5C0C54C
:10047000C0C5C0C5403D49008D46704710B5044613
:10048000C046C0462046FFF766FE10BD00487047D4
:100490004C01002001491820ABBEFEE726000200F7
:1004A0007047000038B50446064805490068FFF764
:1004B00016FF604300E0401E00900028FBD138BDCD
:1004C00040420F0028000020F8B50446006881680B
:1004D0008907890F012902D10168C90727D18168DD
:1004E000144A102611400125002913D1816829439F
:1004F00081600120FFF7D6FF00F006FB074611E000
:1005000000F002FBC01B0A280CD920680068C04319
:10051000C00707D0606D30436065A06D2843A065BB
:100520000120F8BD20680068C043C007E8D1002062
:10053000F8BD000017000080F8B506460D464036AD
:10054000317C01290DD00121317401688A6852077C
:1005500009D5416D202211434165002030740120EE
:10056000F8BD0220F8BD204B6A68D80547109A42B2
:100570001E4C8A6A2B681BD05B035B0B1A438A6292
:100580002968490305D5A1680143A1600A20FFF746
:1005900089FF2868800302D5A0683843A0602868D6
:1005A000C0031DD5A068012109060843A06017E01B
:1005B0005B035B0B9A438A622968490302D5A168F1
:1005C0008143A1602868800302D5A068B843A06079
:1005D0002868C00304D5A168012000068143A160FA
:1005E00000203074F8BD0000011000000027014019
:1005F0000068006C7047000070B5040006D0606DA4
:10060000264600254036002802D006E0012070BDB5
:10061000A5653574204600F0D3F8606DC00603D49C
:1006200021688868400705D5606D10210843606522
:100630003574EBE7606DFF220132904302221043D4
:10064000606588688207920F5B48012A02D10A68B8
:10065000D2072BD1032362689B079A4205D05B42E5
:100660009A4202D05B009A4209D10A69920092082C
:100670000A6121680A6963681A430A610CE00A6921
:10068000920092080A6181680F229204914381606E
:1006900081686268114381602168CA6818239A439F
:1006A000CA602168CA68A3681A43CA6081680122C7
:1006B0005206914381608168A28E52061143816087
:1006C00020688168C90004D481680122120711439F
:1006D00081602068C168394A1140C1602069E168C1
:1006E000022825D000200143204620300278037BD9
:1006F00052035B001A431143226B1143A269920318
:100700001143E269D20311432268D3681943D160CF
:10071000616A0A46FF3AC23A05D0A26A11432268CA
:10072000D3681943D16042780121012A02D00BE03D
:100730000420D8E70078002823D0606D20221043E1
:100740006065A06D0843A065E06B012820681FD09C
:100750000169C90703D0016949084900016120689E
:100760004169C908C900416120684169A26B114310
:100770004161A565606D80088000401C60650020B7
:1007800070BD2068C26801231B041A43C260DBE706
:100790000269FF239B009A43026120680269236C6F
:1007A000A66C1A43636C33431A43026120680269E2
:1007B0000A430261D3E70000002701401902FEFF4F
:1007C00010B586B0044614216846FFF786FD0E4931
:1007D0002068884216D10D48416B42151143416390
:1007E000C16A01221143C162C06A69461040059086
:1007F00002200090032001900020029005200007B5
:1008000000F0AAF806B010BD00240140001002401C
:10081000F8B504464069254640350E4608280BD0F9
:100820002068C068C00709D0606D2021084360655A
:10083000002028740120F8BD082700E00C2700F0F4
:1008400063F9009015E0701C13D0002E05D000F065
:100850005BF90099401AB0420BD920680068384211
:1008600007D1606D042108436065002028740320CF
:10087000F8BD206800683842E5D0606D012149026A
:10088000084360652068C16809058A0F0C21002AA9
:100890001BD12022125D002A17D10268120714D53D
:1008A000826853070122002B08DB43688B434360B7
:1008B000606D130298431043606506E0606D20236D
:1008C00018436065A06D1043A065A069002801D1A0
:1008D000206801600020F8BD70B504462168002042
:1008E0008968490721D425464035297C01291CD037
:1008F00001212974E169012904D02046FFF7E4FDB4
:10090000002811D1616D0A4A1140FF2201321143C2
:1009100061650021A165297422681C21116021688C
:100920008A6804231A438A6070BD022070BD0000EB
:10093000FEF1FFFF70B5044600F0E6F80546601CC6
:1009400002D004480078241800F0DEF8401BA042D2
:10095000FAD370BD1C000020F8B500230324012544
:10096000BDE032462E469E40B446324079D00E79E4
:10097000B607B60F012E01D0022E17D18668274682
:10098000B6465E00B74000967646BE43B646CF6890
:10099000009EB74076463743876046686746BE4349
:1009A0000F79FF06FF0F9F40374347600E79F643EC
:1009B000B6070ED0C6682746B4465E00B646B740B6
:1009C0006646BE43B4468F687646B74066463743B0
:1009D000C7600E79B607B60F022E14D1DE08B60036
:1009E00036180096366A5F07B446FE0E0F27B646E5
:1009F000B7406646BE43B4460F697646B740664682
:100A00003743009E376206682746B4465E00B64606
:100A1000B7406646BE430F79B446BF07BF0F764660
:100A2000B7406646374307604E68B603B60F55D0E9
:100A30002E4F7E6B2E437E639F082D4EBF00BE1946
:100A40000096B6680F27B4469E07360FB646B740E5
:100A50006646BE4305273F07B446B84202D1002789
:100A600015E03BE0234FB84201D101270FE0224FB0
:100A7000B84201D102270AE0204FB84201D1032732
:100A800005E01F4FB84201D1052700E00627764652
:100A9000B74066463743009EB7601A4E36684F68C7
:100AA0009643FF0300D51643164F3E607E684F689D
:100AB0009643BF0300D51643124F7E60BE684F6851
:100AC0009643FF0200D516430E4FBE60FE684F6886
:100AD0009643BF0200D516430A4AD6605B1C0A68DB
:100AE0001646DA4000D03CE7F8BD00000010024096
:100AF000000001400004005000080050000C0050AD
:100B0000001C00500004014001488068704700004C
:100B10001C000020024881680278891881607047B3
:100B20001C00002010B50848002401684022114331
:100B30000160204600F00AF8002801D0012401E0FD
:100B400000F026F8204610BD0020024070B5044693
:100B50000D4D7D202978C000FFF7C1FB01460B48F1
:100B60000068FFF7BCFB00F061FC002809D1042CF1
:100B700007D200222146401E00F016F800206C60CB
:100B800070BD012070BD00001C0000202800002066
:100B90000448416B012211434163816B02041143FC
:100BA000816370470010024010B501F0F1FA10BDEA
:100BB000F8B5044600680027604D810601D40005A1
:100BC0007ED55E4E403EB06BC00004D4B06B3104A5
:100BD0000843B06301275A480168C90511D4016868
:100BE000821511430160FFF78FFF009005E0FFF7CA
:100BF0008BFF0099401A642844D851480068C0050A
:100C0000F5D5316803200005626801401040884234
:100C100005D10323A0681B051840884208D0900323
:100C2000800F032804D13068800301D50120F8BD6E
:100C3000286903210904084029D00A40824202D0D1
:100C40002278920606D4A2680A4082421FD02088E9
:100C500000051CD528692A6988430121C9040A4373
:100C60002A612A698A432A612861C0050FD5FFF7E6
:100C70004BFF009008E0FFF747FF0099411A314809
:100C8000814201D90320F8BD28698005F3D5616848
:100C90008803800F032805D1326800058243014094
:100CA0000A43326028690322616812041140084334
:100CB0002861002F06D0B16B01200007814300E0BE
:100CC00000E0B1632078C00705D0E868E1688008DB
:100CD00080000843E8602078800705D5E8680C218B
:100CE000884321690843E8602078400706D5E86812
:100CF00003218902884361690843E860207800077E
:100D000006D5E868032109038843A1690843E86020
:100D10002078400606D5E868012189068843216AC3
:100D20000843E8602078000606D5E86803218904B6
:100D30008843E1690843E8600020F8BD40100240A4
:100D40000070004088130000F8B50E46050038D04A
:100D50005E480068C007C00FB04214D25B4C2068E8
:100D60004008400030432060FFF7CEFE074605E014
:100D7000FFF7CAFEC11B564881427AD82068C007D7
:100D8000C00FB042F4D12878524C800705D5E068F6
:100D9000F0218843A9680843E0602878C00752D052
:100DA0006868022806D0032807D0216801280AD0E5
:100DB000890504E02168890301E02168890100298F
:100DC00003DB0120F8BD4907F9E7E16889088900DC
:100DD0000143E160FFF798FE0746686802280AD0E1
:100DE000032814D001281ED029E0FFF78DFEC11B77
:100DF000374881423DD8E0680007800F0228F4D1CF
:100E000021E0FFF781FEC11B3148814231D8E06803
:100E10000007800F0328F4D115E0FFF775FEC11B12
:100E20002B48814225D8E0680007800F0128F4D1C3
:100E300009E0FFF769FEC11B2548814219D8E06827
:100E40000007800FF5D121480168C907C90FB142D9
:100E500017D901684908490031430160FFF754FE82
:100E6000074608E005E0FFF74FFEC11B1848814226
:100E700001D90320F8BD15480068C007C00FB04273
:100E8000F1D12878400706D5E06807210902884398
:100E9000E9680843E0602878000707D5E068072183
:100EA000C90288432969C9000843E06000F03AF8A4
:100EB000E168094A0906090F515CC8400749086002
:100EC00007480068FFF742FEF8BD0000002002401E
:100ED00088130000001002404C2200082800002067
:100EE00020000020044805490068C968044A4905F3
:100EF000490F515CC8407047280000200010024094
:100F000065220008044805490068C968044A890444
:100F1000490F515CC8407047280000200010024073
:100F20006522000870B51A4AD3681A490C20184087
:100F30008D0004280CD04E00082810D00C2810D0AA
:100F400050680004410F0120C003491C884070BD57
:100F50001068C00601D5084670BD284670BD3046F1
:100F600070BD98020C4C000F205C1B029C0FD368D4
:100F7000641CDB0301D5314603E01268D20600D4BD
:100F8000294601F0DFF822460023FFF707F970BD7C
:100F90000010024000093D005C220008FEB505007B
:100FA0007ED0FE4CE7680C20E66807400120000474
:100FB00006402878C00747D0082F05D00C2F0AD14B
:100FC00001200004864206D1206880033CD5686871
:100FD0000028E5D038E0012069680004814203D18F
:100FE00021680143216011E0052301221B049204C2
:100FF0009942216802D111432160F1E781432160C8
:1010000021680140009120689043206068680028B2
:101010000DD0FFF779FD009005E0FFF775FD009911
:10102000401A64287BD820688003F6D50CE0FFF7CF
:101030006BFD009005E0FFF767FD0099401A6428FA
:10104000F0D820688003F6D42878800756D5092385
:10105000E868042F0DD00C2F01D1002E09D00028F4
:101060003CD02168994301432160FFF74DFD0646BE
:1010700028E02168490701D5002891D061681F2226
:10108000120291432A691202114361602168994357
:1010900001432160FFF746FFE16809060A0F00E0FF
:1010A000BFE1BF49895CC840BE490860BE480068CE
:1010B000FFF74CFD002873D120E0FFF725FD801BD2
:1010C0000228AFD820684007F7D560681F210902C1
:1010D000884329690902084360600FE020684008DE
:1010E00040002060FFF710FD064604E0FFF70CFD0E
:1010F000801B022896D820684007F7D42878C006BD
:1011000060D5002F0CD0E86900284AD02068FF2164
:10111000013108432060FFF7F7FC06462EE0E5E0CA
:101120002068800502D5E8690028A6D060680721FC
:1011300049038843696A084360606068298C00023B
:10114000000A090608436060686A410B0120C00379
:10115000491C8840E16809060A0F9149895CC8402A
:101160009049086090480068FFF7F0FC002817D10C
:1011700028E0FFF7C9FC801B0228A2D82068800560
:10118000F7D56068072149038843696A08436060AE
:101190006068298C0002000A09060843606011E0BB
:1011A00025E12168FF20013081432160FFF7ACFC7D
:1011B000064604E0FFF7A8FC801B02289AD82068A6
:1011C0008005F7D42878794E000724D5686900286F
:1011D000306910D0012108433061FFF795FC009081
:1011E00005E0FFF791FC0099401A02287ED830698B
:1011F0008007F6D50FE0400840003061FFF784FC1F
:10120000009005E0FFF780FC0099401A02286DD895
:1012100030698007F6D42878400764D50020029012
:10122000A06BC00006D4A06B012109070843A0638E
:10123000012002905E480168C90511D40168821539
:1012400011430160FFF760FC009005E0FFF75CFCD4
:101250000099401A642849D855480068C005F5D55A
:10126000FF20AA680130824203D131690143316114
:1012700011E001218902002A07D005231B029A42AE
:1012800003D132690A433261EFE732698243326146
:10129000306988433061A86800280ED0FFF734FC1D
:1012A000009006E0FFF730FC0099411A4148814266
:1012B0001CD830698005F5D50DE0FFF725FC0090BE
:1012C00006E0FFF721FC0099411A3A4881420DD807
:1012D00030698005F5D40298002804D0A16B012064
:1012E00000078143A1632878800600E07EE02ED5C8
:1012F0003148A9694314002916D0A26801210A4384
:10130000A260626B0A436263016A19430162FFF7DC
:10131000FBFB064604E0FFF7F7FB801B022865D8BD
:10132000A0688007F7D512E0A16849084900A160CC
:10133000016A99430162FFF7E7FB064604E0FFF705
:10134000E3FB801B022851D8A0688007F7D4A86A65
:10135000002868D00C2F4FD00126360602282068BE
:1013600005D0B0432060FFF7CFFB054640E0B04317
:101370002060FFF7C9FB074604E0FFF7C5FBC01B71
:10138000022833D820688001F7D4296BE86AE26824
:101390000843696BFD231B049A430FE000100240D1
:1013A0004C220008280000202000002040100240AD
:1013B0000070004088130000000001401143084302
:1013C000E060206830432060FFF79EFB054604E0A4
:1013D000FFF79AFB401B022808D820688001F7D548
:1013E00021E0FFF791FB401B022801D90320FEBD3D
:1013F00020688001F5D416E00128F8D0E0680121CA
:101400000904EA6A014091420BD10F2189042A6B39
:101410000140914205D1032189050840696B88424A
:1014200001D00120FEBD0020FEBD0000094910B51D
:10143000401E884201D9012010BD074C6061032184
:10144000081F00F0A5FE0020A061072020610020F9
:1014500010BD0000FFFFFF0000E000E0F0B5024615
:101460002032137E012B1ED00125157602235376E0
:1014700006687468B3687027BC430F6827437760B9
:101480000068AC07A04205D0084CA04202D0084C2E
:10149000A04204D180244968A34319438160557652
:1014A00000201076F0BD0220F0BD000000080140D1
:1014B0000014014070B5050005D02C462034607E34
:1014C000002802D006E0012070BD002020762846CA
:1014D00000F010F802206076291D286800F05AFB01
:1014E0000120A077A076E0762077607760760020F4
:1014F00070BD000000680449884204D10348416B74
:101500002022114341637047001401400010024043
:10151000F8B5054604462035287E0026012817D058
:101520000120287602206876226890687727FF23BA
:10153000B8431B02984390600868502838D00EDCEE
:1015400020284FD006DC00284CD010281ED149E0BE
:101550000220F8BD302845D0402817D13AE0602855
:101560002ED0702819D001221203801A0FD0904279
:101570000CD1CB684A688968206800F044FB206879
:101580008168012292031143816000E0012601205D
:101590006876002028763046F8BDCB684A688968AE
:1015A000206800F030FB2168886838438860EEE7E7
:1015B000CA684968206800F0A0FB5021206806E056
:1015C000CA684968206800F0A9FB6021206800F023
:1015D00025FBDCE7CA684968206800F08EFB4021E3
:1015E0002068F4E7226801461046F0E710B586B09F
:1015F000044614216846FEF770FE0D4920688842B3
:1016000013D10C48C26A02210A43C262C06A019126
:1016100008400590102000900020029003900420C4
:10162000049069460448FFF797F906B010BD000022
:10163000001401400010024000040050F8B50646B6
:1016400004462036307E00270D4601280ED00120AA
:101650003076002A0CD0042A1BD0082A2FD00C2A5E
:101660003ED00127002030763846F8BD0220F8BD74
:10167000206800F0DBFA206881690822114381614B
:101680002068826904218A43826120688169EA684E
:1016900012E0206800F0E2FA206882690121C902A4
:1016A0000A4382612068816901229202914381612B
:1016B00020688169EA68120211438161D2E72068DB
:1016C00000F0E5FA2068C16908221143C161206871
:1016D000C26904218A43C2612068C169EA6812E0D4
:1016E000206800F0EFFA2068C1690122D20211439C
:1016F000C1612068C269012189028A43C2612068F0
:10170000C169EA6812021143C161ABE770B5050017
:1017100005D02C462034607E002802D006E001204F
:1017200070BD00202076284600F00FF80220607679
:10173000291D286800F02EFA0120A077A076E07617
:10174000207760776076002070BD704770B50546E1
:101750002C4602202034002908D004290BD0082967
:101760000ED0627F012A10D0012070BDA27E012A16
:10177000FAD1A0760AE0E27E012AF5D1E07605E012
:10178000227F012AF0D1207700E0607701222868CB
:1017900000F02CFA0122286892070121904205D01E
:1017A000074A904202D0074A904204D18268520709
:1017B000520F062A02D002680A430260002070BD60
:1017C000000801400014014010B5040003D0A06FD0
:1017D000002802D007E0012010BD0021742001552F
:1017E000204600F027F82420A067206801684908F7
:1017F00049000160204600F03BFB0128ECD0606A04
:10180000002802D0204600F09CFA20684168092296
:10181000D20291434160206881682A22914381600D
:1018200020680168012211430160204600F0EEFAB1
:1018300010BD000010B586B0044614216846FEF7BE
:101840004CFD1149206888421CD11048416B01228F
:10185000920311434163C16A01221143C162C06A0C
:10186000694610400590032040020090022001903C
:10187000002002900320039004200490052000071C
:10188000FFF76AF806B010BD0038014000100240B2
:10189000FFB50446806F83B017460D4620285ED101
:1018A000002D0AD0002F08D0A168C001814207D1C5
:1018B0002069002804D1E80702D0012007B0F0BD5C
:1018C000204660300090007D012848D0009801211A
:1018D00001750020802108512120A067FFF714F92D
:1018E000264640360190378277820120A1680003A6
:1018F000814202D12069002805D02F460025009999
:101900000020087511E00027F9E700228021204619
:1019100000F0AEFB002815D1002F15D021683878D3
:1019200088627F1C708A401E7082708A019B00282A
:1019300006980090E9D100224021204600F098FB53
:10194000002808D00320B9E728882168C005C00D09
:101950008862AD1CE6E72020A0670020AEE70220E9
:10196000ACE7FEE71CB5002118480091164A01912A
:101970000260C16312054260816001230722036196
:1019800082630246C16020321370FF235170C2335C
:101990004362816211730163816104224163426188
:1019A000C161FEF729FE002801D072B6FEE70848A3
:1019B00000908013019069460448FEF7BDFD0028A1
:1019C00001D072B6FEE71CBD002401402C000020AF
:1019D0000200000408B50F48C26A04210A43C2622B
:1019E000C26A0A400092C26A80210A43C262C26A85
:1019F0000A400092C16A01221143C162C16A1140CA
:101A00000091C26A02210A43C262C06A0840009083
:101A100008BD00000010024010B58AB000240494F4
:101A20000594069407940894214922480994009447
:101A300001940294039412C00460FF218460413138
:101A4000C46041600838FFF735FD002801D072B648
:101A5000FEE701200003049004A91648FFF758FD93
:101A6000002801D072B6FEE71248FFF74FFE0028AB
:101A700001D072B6FEE7089408A90E480994FFF752
:101A8000EDFC002801D072B6FEE7602000900194C2
:101A900002940022694603940648FFF7CFFD002810
:101AA00001D072B6FEE70348FFF7A0FD0AB010BDF3
:101AB000001401408800002010B50C480A4901605C
:101AC0004B21C901416000218160C16001618161D8
:101AD000C1610C22016242614162FFF775FE00287C
:101AE00001D072B6FEE710BD00380140C8000020EA
:101AF000FEE77047704710B5FFF70CF810BD000007
:101B000030B59DB038216846FEF7E7FB142117A8D1
:101B1000FEF7E3FB24210EA8FEF7DFFB1B4801685C
:101B20000322D2029143C21489180160022000905E
:101B300001250A9000240395800510210D900B9437
:101B40000C9404916846FFF729FA002801D072B678
:101B5000FEE70F20179003201890012080021B90B1
:101B600019941A94002117A8FFF7EEF8002801D065
:101B700072B6FEE70EA80E951194FFF719F800282B
:101B800001D072B6FEE71DB030BD0000007000400D
:101B90007047000070B5026801239B07114C124D7D
:101BA000984203D0A04201D0A84203D17026B2438C
:101BB0004E683243984203D0A04201D0A84204D1DB
:101BC00003231B029A43CB681A4380239A430B6971
:101BD0001A4302608A68C262096881620121416118
:101BE00070BD0000000801400014014010B5CB0694
:101BF000DB0E0121046A99408C430462016A9A4019
:101C00001143016210BD30B58468FF252D021B020F
:101C10001343AC430B432343836030BD826870237E
:101C20009A430A4307210A438260704730B5026A2B
:101C3000520852000262026A456883697024A34315
:101C40009C080B68A40023430224A2438C684560CF
:101C50001443836149684163046230BD30B5026A50
:101C600010239A430262036A45688269732424023E
:101C7000A2430C6824021443202293438A684560DF
:101C800012011A43846149688163026230BD30B534
:101C9000026AFF2301339A430262026A4568C369FC
:101CA0007024A3439C080B68A4002343012464020E
:101CB000A2438C68456024021443C3614968C16330
:101CC000046230BD30B5026A01231B039A430262ED
:101CD000036A4568C26973242402A2430C68240283
:101CE00014430122520393438A68456012031A4346
:101CF000C46149680164026230BD30B5036A046A98
:101D00006408640004628469F025AC431201224334
:101D10000A24A3430B438261036230BD30B5036ADA
:101D20001024A34303628469036A0F252D03120361
:101D3000AC432243A024A3430901194382610162F9
:101D400030BD10B5818CC90707D001684A680123EE
:101D50005B049A43836A1A434A60818C890707D5DA
:101D600001684A6801231B049A43C36A1A434A6004
:101D7000818C490707D501684A6801239B049A436F
:101D8000036B1A434A60818C090707D501684A68CA
:101D90000123DB039A43436B1A434A60818CC906D3
:101DA00007D50268916801231B039943836B19438C
:101DB0009160818C890607D501688A6801235B03DD
:101DC0009A43C36B1A438A60818C490612D5036813
:101DD0005A6801210905046C8A4322435A60026C47
:101DE0008A4207D10268516803235B059943436C1B
:101DF00019435160818C090607D501684A6801239F
:101E0000DB04806C9A4302434A6010BDF8B5044677
:101E1000002680300660FEF777FE054620680068E1
:101E2000124F000709D501212B4600224905204603
:101E3000009700F01DF900280DD1206800684007C8
:101E40000BD501212B46002289052046009700F082
:101E50000FF9002801D00320F8BD2020A067E0671B
:101E60002666603426750020F8BD0000FFFFFF01E4
:101E7000F8B50446016880682369E6691843636918
:101E8000002533431843724A0B68724E33400343B4
:101E90000B602168486803231B039843E3681843D9
:101EA00048602168A069914201D0236A18438B6879
:101EB0000B263602B34303438B60674923686748A8
:101EC0008B420CD1C0688007800F06D0012839D022
:101ED000022835D0032821D11EE001271FE06049E8
:101EE0008B420AD1C0680C21084027D0042829D091
:101EF000082825D00C2811D10EE093420ED1C168DC
:101F000003208002014019D001208002091A19D053
:101F1000091A15D0814201D1082700E010274F4946
:101F2000504840398600934232D1002F0CD0022F06
:101F30000DD0042F10D0082F7FD126E00027EEE728
:101F40000227ECE70427EAE7FEF7CCFF06E0096882
:101F5000C90605D4304603E0FEF7E4FF002872D03E
:101F6000626851005118814267D81103814264D3DD
:101F7000010E06025008002330185941FEF70EF9F1
:101F800003210902411A384A55E00120C003E7E75E
:101F90000122E369D20393422BD13B0000F0EAF81F
:101FA0000906090C4D114D4D4D274D00FEF79AFFC6
:101FB00009E0FEF7A7FF06E00968C90605D4304628
:101FC00003E0FEF7AFFF00283DD0616840004A08FB
:101FD0008018FEF784F980B20146244A10399142F4
:101FE0002BD8511C01400007400F084329E0104640
:101FF000EBE73B0000F0BEF80906090C2112212195
:1020000021232100FEF76EFF0AE0FEF77BFF07E0C9
:102010000968C90606D4304604E00EE0FEF782FFE8
:10202000002810D061684A081018FEF758F980B2ED
:1020300001460E4A1039914203D9012503E01046AA
:10204000F0E72168C86000206066A0662846F8BDF9
:1020500000480040F369FFEF0038014040100240A3
:102060000044004000093D00FFFC0F00EFFF0000AE
:10207000FFB581B005461746044660350A9E55E017
:10208000701C53D0FEF740FD0499401AB04230D87E
:10209000002E2ED020680168490747D5C069C0438B
:1020A000000543D401202168C0020862EFF31080CC
:1020B000012181F3108821680B68FF22A13293432C
:1020C0000B6080F31088EFF31080012181F31088FA
:1020D00021688A68520852008A6080F310882020A4
:1020E000A067E0678034206000202875032005B0D9
:1020F000F0BDEFF31080012181F3108821680B6897
:10210000FF22A13293430B6080F31088EFF310801D
:10211000012181F3108821688A68520852008A6080
:1021200080F310882020A067E067DDE72068C169A0
:102130000298884304D00020B842A1D00020D6E7FE
:102140000120F9E7F8B5040C8BB2264682B25E4353
:102150000D0C1046370C5843360480190021794184
:1021600016466E43370C36048019794126466E4375
:102170008919F8BD30B47446641E2578641CAB42DE
:1021800000D21D46635D5B00E31830BC18470000B9
:102190008307FF22DB0E9A408907090E9940002829
:1021A00008DB830809489B001B1818689043084304
:1021B000186070470007000F0838830804489B0028
:1021C0001B18D86990430843D861704700E400E0C9
:1021D00000ED00E0FEF7A6FCFFF792FCFFF7FAFB2C
:1021E000FFF7C0FBFFF768FCFFF716FC002114485F
:1021F000FFF7ACFA124D134C134E0027FF43104863
:102200005C38FEF769FB6420FEF794FB0C485C38F1
:10221000FEF7EEF920800A4831465C38FEF7F8FAFE
:10222000296820884863074905483B461822891CCD
:102230004030FFF72DFBFF20F530FEF77BFBDEE79C
:102240008800002000000020FA0F000000000000BD
:102250000000000001020304060708090304060841
:102260000C101820300000000001020304000000E0
:1022700090220008000000202C000000040100084B
:10228000BC2200082C000020840700002001000868
:10229000000055415254205472616E736D69742070
:1022A0004578616D706C650D0A000000010000004A
:0C22B000040000000000000000002000FE
:04000005080000C12E
:00000001FF
